S00F00005553425F4E52462E73726563E6
S113000014C02CC02BC02AC029C028C027C012C1CC
S113001025C024C023C022C021C020C01FC01EC0D0
S11300201DC01CC01BC01AC019C011241FBECFEDB7
S1130030CDBF10E0A0E6B0E0E4E3F3E002C0059039
S11300400D92AC39B107D9F720E0ACE9B0E001C0BA
S11300501D92A43BB207E1F736D16AC1D1CF949A7D
S1130060969881B3806581BB08959498CDD0949A75
S11300700895CF93DF931F92CDB7DD2794986983BA
S1130080C3D06981862FC0D0949A0F90DF91CF910D
S11300900895CF93C82F87E0E8DF80788C1721F08C
S11300A063E580E5CF91E5CFCF9108950F931F933A
S11300B0CF93DF93D62FC0E08C010F5F1F4F31D158
S11300C0CC2311F0C1500EC0949A882371F0D11141
S11300D007C0C82FC295C695C7708F71806201C0D2
S11300E0C1E0949891D0C801E7CFDF91CF911F91DF
S11300F00F9108951F93CF93DF931F92CDB7DD2700
S113010080629498698380D06981693068F411E0D1
S1130110160F862F90E08B5E9F4F03D1163010F0A0
S1130120612FF0CF16E0FCCF949A0F90DF91CF911E
S11301301F91089594DF80E8ACDF60E08FE190E0E8
S1130140B5DF80E0A6DF61E080E090E0AFDF60E053
S113015080E1D0DF60E08AE0CDDF8FE097E20197B5
S1130160F1F700C0000008956FEF80E082DF682F90
S1130170616080E27EDF9698CFEF2FEF84E39CE00E
S1130180215080409040E1F700C0000084E990E0F5
S113019044D0D0E01FEF6D2F85E26BDF82EE65DF88
S11301A06FEF87E066DF682F606787E262DF8FE8C2
S11301B091E00197F1F700C00000969A87E795E077
S11301C00197F1F700C0000096986FEF89E051DFC6
S11301D0C81720F4805E282F2C1B04C0811708F454
S11301E0182F20E28C2F90E063E070E089D0810F1B
S11301F0911D9695879596958795C82F822F16D031
S1130200DF5FDF3F41F6B9CF8FB9769A8BE17699FC
S113021002C08DB9FCCF8FB10895FC01919199234F
S113022021F05D9BFECF9CB9F9CF08955D9BFECF75
S11302308CB908951F920F920FB60F9211242F9329
S11302403F934F938F939F93EF93FF938091B000CD
S1130250882319F0813041F02AC081E08093B000F6
S11302601092B1001092AF008091B10081111FC0B3
S11302702CB12A3061F02D3051F041E030E0809112
S1130280AF00803108F440E0842F932F02C081E056
S113029090E08093B100892B51F4E091AF0081E0AC
S11302A08E0F8093AF00F0E0E256FF4F2183FF9161
S11302B0EF919F918F914F913F912F910F900FBE8E
S11302C00F901F90189587B38F6187BBC49AC39A08
S11302D087B3806C87BB599A12B887E689B988E1DD
S11302E08AB98EE083B9579A15BE86E191E090935E
S11302F09D0080939C001EDF37DF80E090E008952E
S11303000024552704C0080E591F880F991F009711
S113031029F076956795B8F37105B9F7802D952F77
S11303200895E199FECF8EBBE09A99278DB3089585
S1070330F894FFCF6B
S1130334555000444E00525800545800454E414212
S11303444C450044495341424C4500314200324239
S1130354002D00314D00324D00353030CA003132A9
S10F0364333435000A000A52583D0000F2
S9030000FC
