S00F00005553425F4E52462E73726563E6
S113000014C02CC02BC02AC029C028C027C079C066
S113001025C024C023C022C021C020C01FC01EC0D0
S11300201DC01CC01BC01AC019C011241FBECFEDB7
S1130030CDBF10E0A0E6B0E0E6ECF2E002C005902F
S11300400D92AC3CB107D9F720E0ACECB0E001C0B4
S11300501D92A33EB207E1F718D133C1D1CF80E39B
S113006082BB88E781BB1092E2000895E091E20030
S1130070F0E0EE0FFF1FEE0FFF1FE05AFF4FA081CD
S1130080B1812C91E80FF11D81E090E0028002C063
S1130090880F991F0A94E2F7662311F0822B02C09D
S11300A0809582238C930895CF93DF93D82FC62F06
S11300B060E080E0DBDF8D2F0AD08C2F08D0C82FC2
S11300C061E080E0D3DF8C2FDF91CF9108958FB969
S11300D0769A769904C08BE18DB9769BFDCF8FB16A
S11300E00895FC019081992339F031965D9BFECFF0
S11300F09CB991919111FACF08955D9BFECF8CB973
S113010008951F920F920FB60F9211242F938F937D
S11301109F93AF93BF93EF93FF938091E000882365
S113012019F0813039F02AC0EEECF0E081E0828BE6
S1130130138A118A8091E100811120C08CB18A3028
S1130140D1F08D30C1F091E02091DF00203108F42E
S113015090E09093E100911111C0AEECB0E05196A3
S1130160EC91519791E09E0F51969C93F0E0E253ED
S1130170FF4F818303C081E08093E100FF91EF9101
S1130180BF91AF919F918F912F910F900FBE0F90C0
S11301901F9018952FE38DE093E02150804090400C
S11301A0E1F700C00000B59B04C08CE990E099DF42
S11301B003C083EA90E095DF2FE38DE093E02150C4
S11301C080409040E1F700C000006FEF80E06CDFFA
S11301D081FD0DC06FEF80E067DF682F626080E211
S11301E063DF86E791E00197F1F700C0000063E761
S11301F080E55ADF89EF90E00197F1F700C0000035
S11302006FEF80E051DF682F616080E24DDF60E0D6
S113021081E02CDFD0E087EA91E60197F1F700C096
S113022000008AEA90E05DDFB59B04C08DEA90E0AF
S113023058DF03C083EB90E054DF9FE926E881E0B8
S1130240915020408040E1F700C00000CD2F6C2F7A
S113025085E22ADF61E081E009DF96EA9A95F1F709
S113026000C06D2F81E002DF6FEF89E01DDF873A68
S113027030F06FEF89E018DF86573FDF02C08EE26F
S11302803CDFCF5FCE3719F7C6CF87B38F6187BB0B
S1130290C49AC39A87B3806C87BB599A12B88CE00E
S11302A089B988E18AB98EE083B9579A15BE8DE77A
S11302B090E09093CD008093CC00D1DE1092E200C8
S10902C069DFF894FFCF92
S11302C63200040632000503555000444E005258CD
S11302D600545800454E41424C450044495341425E
S11302E64C45003142003242002D00314D00324D62
S11302F600353030CA003132333435002053444F90
S11303063D31002053444F3D30000D0A0020444F38
S11303163D310020444F3D3000207365743D31006B
S10F0326207365743D30000A0D52000085
S9030000FC
