S00F00005553425F4E52462E73726563E6
S11300000C9434000C9451000C9451000C94510045
S11300100C9451000C9451000C9451000C94510018
S11300200C9451000C9451000C9451000C94510008
S11300300C9451000C9451000C9451000C945100F8
S11300400C9451000C9451000C94D2010C94510066
S11300500C9451000C9451000C9451000C945100D8
S11300600C9451000C94510011241FBECFEFD8E022
S1130070DEBFCDBF11E0A0E0B1E0ECEBF5E002C0E3
S113008005900D92AA38B107D9F721E0AAE8B1E0AA
S113009001C01D92A03AB207E1F70E94AC020C9491
S11300A0DC020C9400002A9A84B1866084B9089515
S11300B02A980E94C5012A9A0895CF93DF931F922C
S11300C0CDB7DEB72A9869830E94C5016981862F5E
S11300D00E94C5012A9A0F90DF91CF9108950F9342
S11300E01F93CF93DF931F92CDB7DEB78B012A986E
S11300F049830E94C5014981642FC8010E94B70148
S11301002A9A0F90DF91CF911F910F910895CF9369
S1130110C82F87E00E94580080788C1729F063E587
S113012080E5CF910C945D00CF91089580E00E940A
S1130130870063E080E20E945D0062E385E20E9442
S11301405D0068E486E20E945D0067E78FE30C943B
S11301505D00CF92DF92EF92FF920F931F93CF93A4
S1130160DF93CDB7DEB7E6970FB6F894DEBF0FBEC8
S1130170CDBF80E80E94870010E418AB19AA80E183
S11301808AAB84EE8BAB44E0BE01605D7F4F81E2BD
S11301900E946F0085E0E4E0F1E0DE011B9601902F
S11301A00D928A95E1F745E0BE01655F7F4F83E2DA
S11301B00E946F001CAA1DAA8FE18EAB43E0BE0112
S11301C06C5C7F4F8AE20E946F0064E18CE20E94C3
S11301D05D0060E087E30E945D006FE788E30E94B2
S11301E05D0082E0C82ECCA691ECD92EDDA68BEE64
S11301F08EA72CE1E22EEFA644E0BE01645D7F4FA2
S11302008DE30E946F0037E9F32EF8A604E609A7F0
S11302101AA681E88BA744E0BE01685D7F4F8EE398
S11302200E946F0080E00E948700299A80EA8A95E4
S1130230F1F7299887EC90E00197F1F700C00000EE
S1130240299A90EA9A95F1F7299887EC90E001971A
S1130250F1F700C0000085E0E9E0F1E0DE01169668
S113026001900D928A95E1F745E0BE016A5F7F4FE8
S11302708EE30E946F0090EA9A95F1F780E80E945D
S113028087001CA311E01DA380E38EA382EE8FA33D
S113029044E0BE016C5D7F4F81E20E946F0085E007
S11302A0EEE0F1E0DE01119601900D928A95E1F7FE
S11302B045E0BE016F5F7F4F83E20E946F0064E1FF
S11302C08CE20E945D0085E588A382EC89A389E025
S11302D08AA38CEA8BA344E0BE01605E7F4F81E376
S11302E00E946F001C8E84E18D8F88E08E8F89E2DE
S11302F08F8F44E0BE01645E7F4F83E30E946F00F2
S1130300C88ED98E8BEC8A8FEB8E44E0BE01685E7A
S11303107F4F8DE30E946F00FC8A0D8B1E8A1F8B1A
S113032044E0BE016C5E7F4F8EE30E946F008AE260
S1130330888B84E0898B1A8A8DE78B8B44E0BE011D
S1130340605F7F4F8FE30E946F0080E00E94870010
S1130350E6960FB6F894DEBF0FBECDBFDF91CF9106
S11303601F910F91FF90EF90DF90CF900895282F69
S1130370FC018E2F821B861738F481918EBD0DB43B
S113038007FEFDCF8EB5F5CF08958EBD0DB407FEE3
S1130390FDCF8EB508959091C00095FFFCCF80935A
S11303A0C60008951F920F920FB60F9211242F9337
S11303B03F934F938F939F93EF93FF9380919E016D
S11303C0882319F0813041F02BC081E080939E0195
S11303D010929F0110929D0180919F01811120C074
S11303E02091C6002A3061F02D3051F041E030E018
S11303F080919D01803108F440E0842F932F02C046
S113040081E090E080939F01892B51F4E0919D015C
S113041081E08E0F80939D01F0E0E457FE4F21832D
S1130420FF91EF919F918F914F913F912F910F9059
S11304300FBE0F901F9018952FEF80E792E0215088
S113044080409040E1F700C000000E9453002998CA
S11304500E9496000E94A90063E780E50E945D0067
S11304606FEF8CE10E945D00682F6F638CE30E9444
S11304705D006FEF8DE10E945D00682F64608DE385
S11304800E945D006FEF81E00E945D00682F607C38
S113049081E20E945D006FEF82E00E945D00807C3B
S11304A0682F616082E20E945D006FEF83E00E942A
S11304B05D008C7F682F626083E20E945D0044E0EF
S11304C060E071E080E30E946F0044E060E071E06E
S11304D08AE20E946F006FEF80E00E945D00682F47
S11304E0637F80E20E945D006FEF80E00E945D0008
S11304F0682F616080E20E945D0068E285E20E94EC
S11305005D006FE486E20E945D002FEF89E698E1CA
S1130510215080409040E1F700C0000008956FEF43
S113052080E00E945D00682F6E7F80E20E945D0083
S11305308FE99FE00197F1F700C00000299A40E19C
S113054068E771E080EA0E946F008FE599E0019707
S1130550F1F700C00000F3CF84B1837C8C6284B9CE
S11305608CB580658CBD8DB581608DBD8CB58D7F5E
S11305708CBD8CB581608CBDE0ECF0E08081826044
S113058080831092C5008FEC8093C40088E180932F
S1130590C1008EE08093C2008AB18C608AB98BB1AD
S11305A08C608BB98BEC91E090938B0180938A01E2
S10F05B00E941C020E948F02F894FFCFEE
S11305BCF0C2C3C5200850405028328090002989CD
S11305CC554050555000444E005258005458004564
S11305DC4E41424C450044495341424C4500314242
S11305EC003242002D00314D00324D00353030CAFE
S11305FC0046003132333435000D0A0031323334C5
S113060C35363738393000313233343536373839BA
S113061C303132333435363738393031323334358E
S113062C36373839303132003132333435363738A5
S10D063C3930313233343536000012
S9030000FC
